{
  "contractName": "coinSpawn",
  "abi": [
    {
      "constant": true,
      "inputs": [
        {
          "internalType": "uint256",
          "name": "",
          "type": "uint256"
        }
      ],
      "name": "deployedContracts",
      "outputs": [
        {
          "internalType": "address",
          "name": "",
          "type": "address"
        }
      ],
      "payable": false,
      "stateMutability": "view",
      "type": "function"
    },
    {
      "constant": false,
      "inputs": [
        {
          "internalType": "uint256",
          "name": "initialBalance",
          "type": "uint256"
        }
      ],
      "name": "createCoin",
      "outputs": [
        {
          "internalType": "address",
          "name": "a",
          "type": "address"
        }
      ],
      "payable": false,
      "stateMutability": "nonpayable",
      "type": "function"
    }
  ],
  "bytecode": "0x608060405234801561001057600080fd5b5061052f806100206000396000f3fe608060405234801561001057600080fd5b50600436106100365760003560e01c806380f7884d1461003b5780639ad1ee10146100a9575b600080fd5b6100676004803603602081101561005157600080fd5b8101908080359060200190929190505050610117565b604051808273ffffffffffffffffffffffffffffffffffffffff1673ffffffffffffffffffffffffffffffffffffffff16815260200191505060405180910390f35b6100d5600480360360208110156100bf57600080fd5b81019080803590602001909291905050506101e9565b604051808273ffffffffffffffffffffffffffffffffffffffff1673ffffffffffffffffffffffffffffffffffffffff16815260200191505060405180910390f35b6000816040516101269061021c565b80828152602001915050604051809103906000f08015801561014c573d6000803e3d6000fd5b50600080600154815260200190815260200160002060006101000a81548173ffffffffffffffffffffffffffffffffffffffff021916908373ffffffffffffffffffffffffffffffffffffffff1602179055506000806001600081548092919060010191905055815260200190815260200160002060009054906101000a900473ffffffffffffffffffffffffffffffffffffffff169050919050565b60006020528060005260406000206000915054906101000a900473ffffffffffffffffffffffffffffffffffffffff1681565b6102d18061022a8339019056fe608060405234801561001057600080fd5b506040516102d13803806102d18339818101604052602081101561003357600080fd5b8101908080519060200190929190505050806000803273ffffffffffffffffffffffffffffffffffffffff1673ffffffffffffffffffffffffffffffffffffffff168152602001908152602001600020819055505061023a806100976000396000f3fe608060405234801561001057600080fd5b50600436106100365760003560e01c806327e235e31461003b578063412664ae14610093575b600080fd5b61007d6004803603602081101561005157600080fd5b81019080803573ffffffffffffffffffffffffffffffffffffffff1690602001909291905050506100f9565b6040518082815260200191505060405180910390f35b6100df600480360360408110156100a957600080fd5b81019080803573ffffffffffffffffffffffffffffffffffffffff16906020019092919080359060200190929190505050610111565b604051808215151515815260200191505060405180910390f35b60006020528060005260406000206000915090505481565b6000816000803273ffffffffffffffffffffffffffffffffffffffff1673ffffffffffffffffffffffffffffffffffffffff16815260200190815260200160002054101561016257600090506101ff565b816000803273ffffffffffffffffffffffffffffffffffffffff1673ffffffffffffffffffffffffffffffffffffffff16815260200190815260200160002060008282540392505081905550816000808573ffffffffffffffffffffffffffffffffffffffff1673ffffffffffffffffffffffffffffffffffffffff16815260200190815260200160002060008282540192505081905550600090505b9291505056fea265627a7a72315820bf15e36b278c079a427975cd1268fdab8a3c59ad15d0712794a913d5c52c9abd64736f6c63430005100032a265627a7a72315820009b7dc29635a2208bef1a1b78317318cee7e8ff110d1605cbafcf2312bd967964736f6c63430005100032",
  "source": "// SPDX-License-Identifier: MIT\npragma solidity >=0.4.22 <0.8.0;\n\nimport './Metacoin.sol';\n\ncontract coinSpawn{\n \tmapping(uint => address) public deployedContracts;\n\tuint numContracts;\n\tfunction createCoin(uint initialBalance) public returns (address a) {\n\t\tdeployedContracts[numContracts] = address(new Metacoin(initialBalance));\n\t\treturn deployedContracts[numContracts++];\n\t}\n}",
  "sourcePath": "/Users/kylescott/src/simple_interactions/contracts/coinSpawn.sol",
  "compiler": {
    "name": "solc",
    "version": "0.5.16+commit.9c3226ce.Emscripten.clang"
  },
  "schemaVersion": "3.2.4",
  "updatedAt": "2021-04-11T17:06:40.918Z",
  "networkType": "ethereum",
  "devdoc": {
    "methods": {}
  },
  "userdoc": {
    "methods": {}
  }
}