{
  "contractName": "coinCaller",
  "abi": [
    {
      "constant": true,
      "inputs": [],
      "name": "numTransfers",
      "outputs": [
        {
          "internalType": "uint256",
          "name": "",
          "type": "uint256"
        }
      ],
      "payable": false,
      "stateMutability": "view",
      "type": "function"
    },
    {
      "constant": true,
      "inputs": [
        {
          "internalType": "uint256",
          "name": "",
          "type": "uint256"
        }
      ],
      "name": "transfers",
      "outputs": [
        {
          "internalType": "address",
          "name": "coinContract",
          "type": "address"
        },
        {
          "internalType": "uint256",
          "name": "amount",
          "type": "uint256"
        },
        {
          "internalType": "address",
          "name": "recipient",
          "type": "address"
        },
        {
          "internalType": "bool",
          "name": "successful",
          "type": "bool"
        },
        {
          "internalType": "uint256",
          "name": "balance",
          "type": "uint256"
        }
      ],
      "payable": false,
      "stateMutability": "view",
      "type": "function"
    },
    {
      "constant": false,
      "inputs": [
        {
          "internalType": "address",
          "name": "coinContractAddress",
          "type": "address"
        },
        {
          "internalType": "address",
          "name": "receiver",
          "type": "address"
        },
        {
          "internalType": "uint256",
          "name": "amount",
          "type": "uint256"
        }
      ],
      "name": "sendCoin",
      "outputs": [],
      "payable": false,
      "stateMutability": "nonpayable",
      "type": "function"
    }
  ],
  "bytecode": "0x608060405234801561001057600080fd5b506104f0806100206000396000f3fe608060405234801561001057600080fd5b50600436106100415760003560e01c80630b40bd88146100465780639377d711146100b4578063a39a8dbd1461016e575b600080fd5b6100b26004803603606081101561005c57600080fd5b81019080803573ffffffffffffffffffffffffffffffffffffffff169060200190929190803573ffffffffffffffffffffffffffffffffffffffff1690602001909291908035906020019092919050505061018c565b005b6100e0600480360360208110156100ca57600080fd5b8101908080359060200190929190505050610432565b604051808673ffffffffffffffffffffffffffffffffffffffff1673ffffffffffffffffffffffffffffffffffffffff1681526020018581526020018473ffffffffffffffffffffffffffffffffffffffff1673ffffffffffffffffffffffffffffffffffffffff168152602001831515151581526020018281526020019550505050505060405180910390f35b6101766104b5565b6040518082815260200191505060405180910390f35b600080600060015481526020019081526020016000209050838160000160006101000a81548173ffffffffffffffffffffffffffffffffffffffff021916908373ffffffffffffffffffffffffffffffffffffffff160217905550818160010181905550828160020160006101000a81548173ffffffffffffffffffffffffffffffffffffffff021916908373ffffffffffffffffffffffffffffffffffffffff1602179055508060000160009054906101000a900473ffffffffffffffffffffffffffffffffffffffff1673ffffffffffffffffffffffffffffffffffffffff1663412664ae84846040518363ffffffff1660e01b8152600401808373ffffffffffffffffffffffffffffffffffffffff1673ffffffffffffffffffffffffffffffffffffffff16815260200182815260200192505050602060405180830381600087803b1580156102de57600080fd5b505af11580156102f2573d6000803e3d6000fd5b505050506040513d602081101561030857600080fd5b81019080805190602001909291905050508160020160146101000a81548160ff0219169083151502179055508060000160009054906101000a900473ffffffffffffffffffffffffffffffffffffffff1673ffffffffffffffffffffffffffffffffffffffff166327e235e3306040518263ffffffff1660e01b8152600401808273ffffffffffffffffffffffffffffffffffffffff1673ffffffffffffffffffffffffffffffffffffffff168152602001915050602060405180830381600087803b1580156103d757600080fd5b505af11580156103eb573d6000803e3d6000fd5b505050506040513d602081101561040157600080fd5b8101908080519060200190929190505050816003018190555060016000815480929190600101919050555050505050565b60006020528060005260406000206000915090508060000160009054906101000a900473ffffffffffffffffffffffffffffffffffffffff16908060010154908060020160009054906101000a900473ffffffffffffffffffffffffffffffffffffffff16908060020160149054906101000a900460ff16908060030154905085565b6001548156fea265627a7a72315820b7cb4b3ef2552a87b9c947b5e3284f0dd77d2751852c5194bf52158c264ff8e664736f6c63430005100032",
  "source": "// SPDX-License-Identifier: MIT\npragma solidity >=0.4.22 <0.8.0;\n\nimport './interfaces/IMetacoin.sol';\n\ncontract coinCaller {\n\tstruct transfer{\n\t\taddress coinContract;\n\t\tuint amount;\n\t\taddress recipient;\n\t\tbool successful;\n\t\tuint balance;\n\t}\n\n\tmapping(uint => transfer) public transfers;\n\tuint public numTransfers;\n\n\tfunction sendCoin(address coinContractAddress, address receiver, uint amount) public {\n\t\ttransfer storage t = transfers[numTransfers]; //Creates a reference t\n\t\tt.coinContract = coinContractAddress;\n\t\tt.amount = amount;\n\t\tt.recipient = receiver;\n\t\tt.successful = IMetacoin(t.coinContract).sendToken(receiver, amount);\n\t\tt.balance = IMetacoin(t.coinContract).balances(address(this));\n\t\tnumTransfers++;\n\t}\n}",
  "sourcePath": "/Users/kylescott/src/simple_interactions/contracts/coinCaller.sol",
  "compiler": {
    "name": "solc",
    "version": "0.5.16+commit.9c3226ce.Emscripten.clang"
  },
  "schemaVersion": "3.2.4",
  "updatedAt": "2021-04-13T00:59:04.492Z",
  "networkType": "ethereum",
  "devdoc": {
    "methods": {}
  },
  "userdoc": {
    "methods": {}
  }
}